:020000040800F2
:10000000FC4F0020390300002D0200002D020000EB
:100010002D0200002D0200002D0200002D02000024
:100020002D0200002D0200002D0200002D02000014
:100030002D0200002D0200002D0200002D02000004
:100040002D0200002D0200002D0200002D020000F4
:100050002D0200002D0200002D0200002D020000E4
:100060002D0200002D0200002D0200002D020000D4
:100070002D0200002D0200002D0200002D020000C4
:100080002D0200002D0200002D0200002D020000B4
:100090002D0200002D0200002D0200002D020000A4
:1000A0002D0200002D0200002D0200002D02000094
:1000B0002D0200002D0200002D0200002D02000084
:1000C0002D0200002D0200002D0200002D02000074
:1000D0002D0200002D0200002D0200002D02000064
:1000E0002D0200002D0200002D0200002D02000054
:1000F0002D0200002D0200002D0200002D02000044
:100100002D0200002D0200002D0200002D02000033
:100110002D0200002D0200002D0200002D02000023
:100120002D0200002D0200002D0200002D02000013
:10013000012149B207480160074801604FF44011AE
:10014000064801604FF00041054801600021054864
:1001500001607047100342420C0342420410014008
:10016000040C01400C0C014081B01CF8019B0BF801
:10017000019BBBEB0A0FF8D101B0704781B00F486B
:10018000006840F001010D4801600D490D48016013
:100190000A4801680C4801400848016007480168A6
:1001A0006FF48020014005480160064801686FF443
:1001B000FE0001400348016001B07047001002409A
:1001C0000000FFF804100240FFFFF6FE81B04FF080
:1001D00000094FF0000CBDEB0A0F04DCBDEB0B0F68
:1001E00001DBD446EA464BF8049BBBEB0A0FFAD17D
:1001F000BCEB0A0F05DDE246D9F800B00BF1040BA9
:10020000F1E701B07047FFFF0249086800B9FBE75A
:10021000704700BF4400424281B002490248016079
:1002200001B07047401901000000002081B0FEE7D6
:1002300001B0704782B0CDF800E0374A374B384CF8
:1002400003F0F000010937484018007804FA00F183
:100250000C464BF68030814206D93348006840F0A6
:1002600002013148016011E045F6C050844206D9D0
:100270002D48006840F001012B48016006E02A4843
:1002800001686FF00700014027480160FFF776FF23
:1002900026480360264802EA00012648016002F071
:1002A000010040B119462348006800F00200002810
:1002B00000D1F8E700E0194602F4803048B11D484B
:1002C000006800F4003000B9F9E701920A4601998C
:1002D00002E001911146019A01F0807070B1154859
:1002E000006840F0807113480160114611480068B1
:1002F00000F0007000B9F9E70A46FFE70B48006814
:1003000000F00C01900000F00C00814200D0F5E7F5
:10031000DDF800E002B070478000010102045D00DA
:100320004019010078030000002002400410024040
:10033000FFFF0F0000100240FFF77CFF00F024F8E1
:10034000FFF76AFFFFF760FFFFF7F2FE084800685B
:1003500000F40040B0F5004F03D1002105480160D2
:1003600003E042F2000103480160EFE7FEE700BF4F
:10037000080C01400C1001400000000001020304C1
:10038000010203040607080900B5DFF810B0DFF822
:1003900010A0FFF71BFF00BD704700BF000000204A
:1003A00004000020FFFFFFFFFFFFFFFFFFFFFFFF35
:00000001FF
